:100000000C943C000C944E000C944E000C944E004A
:100010000C9450000C944E000C944E000C944E0026
:100020000C944E000C944E000C944E000C944E0018
:100030000C944E000C944E000C944E000C944E0008
:100040000C944E000C944E000C944E000C944E00F8
:100050000C944E000C944E000C944E000C944E00E8
:100060000C944E000C944E000C944E000C944E00D8
:100070000C944E000C944E0011241FBECFEFCDBF48
:10008000DFE3DEBF24E3A0E0B4E301C01D92AA30A9
:10009000B207E1F70E9429020C94A4020C9400001C
:1000A0001F920F920FB60F9211248F9381E08093CD
:1000B000530184E0809347048F910F900FBE0F90FF
:1000C0001F901895E0E2F4E083E0818388E0808B64
:1000D000818BE0EAF8E084E0808381E082839DEF19
:1000E00095839AE59683838308958091A5088C7102
:1000F00041F49091A508937081E0933019F080E06D
:10010000089581E008959091A50893709330E1F0EF
:10011000880F682B6093A7088091A50885FD0DC006
:100120008091A50882FD09C08091A50883FD05C0C6
:100130008091A5088370833079F70E947500882329
:1001400029F083E08093A40880E0089581E0089579
:1001500020E22093A508FC0190E082E09617D1F000
:100160002091A50825FD0DC02091A50822FD09C0FC
:100170002091A50823FD05C02091A50823702330F8
:1001800079F72091A80821939F5F691739F380932D
:10019000A408E4CF87E08093A4080895282FFC01E9
:1001A0008E2F821B8617D0F481918093A8088091AE
:1001B000A50885FD0DC08091A50882FD09C080912C
:1001C000A50883FD05C08091A5088370833079F769
:1001D0008091A50884FFE4CF80E0089581E0089530
:1001E000CF93DF931F92CDB7DEB7698360E00E94A3
:1001F0008300882341F061E0CE0101960E94CE0089
:1002000093E09093A4080F90DF91CF9108951F93EE
:10021000CF93DF93EB01142F60E00E9483008823CB
:1002200039F0612FCE010E94CE0093E09093A40894
:10023000DF91CF911F9108950F931F93CF938B015F
:1002400061E00E948300C82F882321F061E0C8018B
:100250000E94A8008C2FCF911F910F9108950F93AA
:100260001F93CF93DF938B01D42F61E00E94830013
:10027000C82F882321F06D2FC8010E94A8008C2F61
:10028000DF91CF911F910F910895EF92FF920F93FD
:100290001F93CF93DF931F92CDB7DEB769837A01A7
:1002A000022F60E00E948300182F882391F161E003
:1002B000CE0101960E94CE00182F811104C083E068
:1002C0008093A40826C08091A70881608093A70826
:1002D00081E08093A4088091A50885FD0DC08091E0
:1002E000A50882FD09C08091A50883FD05C0809105
:1002F000A5088370833079F70E947500882329F060
:1003000083E08093A40810E004C0602FC7010E941E
:10031000A800812F0F90DF91CF911F910F91FF9037
:10032000EF900895009741F0E7E8F3E13197F1F796
:1003300000C000000197F6CF08958F708A3010F446
:10034000805D0895895C089590ED980F9A3030F0A3
:100350009FEB980F963020F487530895892F0895C6
:1003600088E4089584E080934104E0E2F4E080E3CF
:100370008183868308950E9462000E94C3010E94C7
:10038000B2010C942202E0E2F4E084E0818388E090
:100390008283E0E0F8E087E490E1808791878681BE
:1003A00080648683868180688683089580910408AE
:1003B00087FF07C08091000882E48A95F1F700C0AA
:1003C000F5CF08959091040895FFFCCF8093020823
:1003D0000895EF92FF920F931F93CF93DF93EC0159
:1003E0008C01060F111DC017D107A1F07E01888175
:1003F000811109C08AE0DF91CF911F910F91FF9089
:10040000EF900C94E2010E94E2012196F7018081B5
:100410008A3049F7DF91CF911F910F91FF90EF90B4
:100420000895E0E0F4E38091040887FFFCCF809119
:1004300000088A3029F0819384E3E830F80799F7BF
:1004400008950895E0E4F1E081E4808B81E0828BFF
:100450000895CF93DF93CDB7DEB72597CDBFDEBF2D
:1004600078940E94BB010E94D60190E088ED84BF81
:100470009093610085E0ECE4F5E8DE0111960190CF
:100480000D928A95E1F714E000E11093450484E6AB
:1004900090E00E9492011093460484E690E00E944E
:1004A000920122E048E054E36EE086E30E944501B9
:1004B0008091083490E0982F8827209109344AE0F1
:1004C000BE016F5F7F4F820F911D0E946F0265E03A
:1004D000CE0101960E94E90100932704D6CFBB27E5
:1004E0004A3031F4992322F4BDE2909581959F4FD3
:1004F0000C947B02BB27FB015527AA27880F991F65
:10050000AA1FA41710F0A41B83955051B9F7A05D42
:10051000AA3308F0A95DA193009779F7B111B193BF
:100520001192CB010C949402DC01FC01672F7191B4
:100530007723E1F7329704C07C916D9370836291C9
:0C054000AE17BF07C8F30895F894FFCF72
:05054C000A0A0A0A0A78
:00000001FF
